:100000000C94E3000C940B010C940B010C940B0169
:100010000C940B010C940B010C940B010C940B0130
:100020000C940B010C940B010C940B010C940B0120
:100030000C940B010C940B010C940B010C940B0110
:100040000C94CF060C940B010C9463060C943D06A3
:100050000C940B010C940B010C940B010C940B01F0
:100060000C94F4030C940B01005EBCE2613FDD8351
:10007000C29C7E20A3FD1F419DC3217FFCA2401E88
:100080005F01E3BD3E6082DC237D9FC1421CFEA078
:10009000E1BF5D0380DE3C62BEE0025CDF81633D68
:1000A0007C22C09E1D43A1FF4618FAA427799BC558
:1000B00084DA3866E5BB5907DB856739BAE4065848
:1000C0001947A5FB7826C49A653BD987045AB8E638
:1000D000A7F91B45C6987A24F8A6441A99C7257B28
:1000E0003A6486D85B05E7B98CD2306EEDB3510F18
:1000F0004E10F2AC2F7193CD114FADF3702ECC9208
:10010000D38D6F31B2EC0E50AFF1134DCE90722CF7
:100110006D33D18F0C52B0EE326C8ED0530DEFB1E7
:10012000F0AE4C1291CF2D73CA947628ABF51749D7
:100130000856B4EA6937D58B5709EBB536688AD4C7
:1001400095CB2977F4AA4816E9B7550B88D6346AB7
:100150002B7597C94A14F6A8742AC896154BA9F7A7
:10016000B6E80A54D7896B35000000080002010088
:100170000003040700000000000000000000000071
:10018000250028002B0000000000240027002A0082
:1001900000000000230026002900040404040404D5
:1001A0000404020202020202030303030303010226
:1001B00004081020408001020408102001020408F5
:1001C0001020C00D280B11241FBECFEFD8E0DEBFDA
:1001D000CDBF11E0A0E0B1E0E8E1F6E202C0059099
:1001E0000D92AC36B107D9F722E0ACE6B1E001C020
:1001F0001D92A53FB207E1F710E0C2EED0E004C0C7
:100200002197FE010E94E10EC13ED107C9F70E946D
:10021000340B0C94FF120C940000089585ED80932C
:10022000BC008091BC0084FDFCCF109204020895B4
:1002300040918E01262F30E0240F311D21323105EF
:10024000DCF4209104022430C9F4FC0180E090E049
:10025000861758F430918E012191DC01A459BE4FCC
:10026000A30FB11D2C930196F3CF80918E01680FDF
:1002700060938E0180E0089581E0089582E0089502
:10028000089581E090E03091080220910702321732
:1002900010F480E090E09195819591090895809106
:1002A000080290910702891730F48F5F809308024B
:1002B00080E090E008958FEF9FEF0895809107020E
:1002C00090E020910802821B91090895CF92DF925D
:1002D000EF92FF920F931F93CF93DF937C01262F12
:1002E000972F8A018091D701882391F0C62FD72FAD
:1002F0006E01C40ED51ECC15DD0571F06991D701D4
:10030000ED91FC910190F081E02DC7010995F3CFAB
:10031000642F822F0E941801C801DF91CF911F9195
:100320000F91FF90EF90DF90CF900895CF93DF93E0
:100330001F92CDB7DEB769832091D7012223D1F078
:1003400020910502203240F021E030E0FC013383AF
:10035000228380E090E015C080910602E82FF0E053
:10036000E852FE4F998190838F5F809306028093BD
:10037000050205C061E0CE0101960E94180181E0EE
:1003800090E00F90DF91CF910895FC019081018062
:10039000F281E02DF8948181892B81832281892F3C
:1003A000809528232283A7E0B0E01197F1F72181FF
:1003B00082238183A3E2B0E01197F1F780817894E2
:1003C000EFECF0E03197F1F7982381E009F480E059
:1003D0000895FC0190810180F281E02D892F8095A4
:1003E00060FF12C0F8942281822382838181892B4D
:1003F0008183A3E2B0E01197F1F78281982B928379
:10040000789487ED90E011C0F89422818223828352
:100410008181892B8183AFEFB0E01197F1F7828161
:10042000982B928378948FE090E00197F1F70895EC
:10043000CF92DF92EF92FF920F931F93CF93DF93B0
:100440001F92CDB7DEB76C01E62E08E010E0FF2466
:10045000F39461E08F2D8E2109F460E0C601498399
:100460000E94E901FF0C0150110949810115110594
:1004700081F7411115C0F894D6011196ED91FC91C8
:10048000129791818C918095892381831196ED91AA
:10049000FC91129792818C91809589238283789424
:1004A0000F90DF91CF911F910F91FF90EF90DF9010
:1004B000CF900895FC0190810180F281E02DF894A5
:1004C0008181292F20958223818378948DE743E0D1
:1004D00050E0815021F1DA011197F1F73081392391
:1004E000C1F3F8948281822382838181892B818365
:1004F0007894ABE7B7E01197F1F7F894818128235E
:100500002183A3E1B1E01197F1F78081982381E085
:1005100009F080E07894E3E6F6E03197F1F708958A
:10052000CF93FC01C48121E02093D701C093F8014F
:1005300010920602109205028385682B86EA92E0EB
:100540000E94960180910502813208F046C0909188
:1005500004029111FCCF92E09093040291E09093F9
:1005600003029FEF9093D6011092D5018093D4019E
:10057000A8EDB1E024EB31E0F9019E2F921B981712
:1005800018F49D919193F9CF1092B3018091B3012A
:10059000CC0FC82BC093B30180910202813061F46B
:1005A000109202028091B3018093BB008091BC0045
:1005B00083FDF8CF85EC01C085EE8093BC0080916F
:1005C00004028230E1F38091D6018F3F31F08091B7
:1005D000D601803211F08091D6011092060210925D
:1005E00005021092D701CF9108950F931F93CF93D7
:1005F0008C01C62F0E9490026C2F6460C8010E947B
:1006000090026C2F6B7FC8010E94900283EC90E0F7
:100610000197F1F7CF911F910F910895FF920F93DA
:100620001F93CF93DF931F92CDB7DEB78C01F62EC9
:10063000962F907F692F642BC80149830E94F50291
:1006400080E1F89EB00111244981642BC8010F900C
:10065000DF91CF911F910F91FF900C94F50241E033
:100660000E940E0381E090E00895EF92FF920F93B5
:100670001F93CF93DF93CDB7DEB72E970FB6F894C5
:10068000DEBF0FBECDBF67E671E0CE0101960E94CE
:10069000AE0A0E94D8090D811E8197FD1CC08A30C8
:1006A0009105C9F08F8318860F5F1F4FB801CE01E7
:1006B00001960E94570A882361F329813A818D812E
:1006C0009E81BE01695F7F4F820F931F0E949D1123
:1006D0001E830D83DECF0115110569F0E980FA80D4
:1006E0006BE370E0C7010E949211009721F09C011A
:1006F0002E193F0902C02FEF3FEF79014FEFE41AA7
:10070000F40AE016F106A0F409811A816BE370E0A7
:10071000C8018E0D9F1D2D873E870E9492112D8549
:100720003E85009729F0AC01401B510B8A0102C0A5
:100730000FEF1FEF40E050E0BE016F5F7F4FCE0133
:1007400007960E94C30ABE01695F7F4F8EEB92E05D
:100750000E941E0ACE0107960E94A90A9801A701CD
:10076000BE016F5F7F4FCE0107960E94C30ABE0194
:10077000695F7F4F88EB92E00E941E0ACE010796C8
:100780000E94A90A2D813E81A8014F5F5F4FBE01E3
:100790006F5F7F4FCE0107960E94C30ABE01695F5B
:1007A0007F4F82EB92E00E941E0ACE0107960E94C4
:1007B000A90A40E061E085EE92E00E940E038BE31F
:1007C0009FE10197F1F7CE0101960E94A90A2E96AA
:1007D0000FB6F894DEBF0FBECDBFDF91CF911F9152
:1007E0000F91FF90EF9008951F920F920FB60F9206
:1007F00011242F933F934F935F936F937F938F9326
:100800009F93AF93BF93EF93FF938091B900887F3D
:10081000803609F49CC068F5883209F45BC090F416
:10082000803109F454C038F4882309F4F6C08830C4
:1008300009F44DC0F6C0883109F44CC0803209F487
:100840005DC0EFC0803409F468C048F4803309F417
:1008500055C0883309F0E5C08093D601D8C08035F3
:1008600009F44FC0883509F45DC0883409F0D9C057
:10087000D6C0883909F4C7C0A8F4883709F467C01E
:1008800038F4883609F463C0803709F460C0C9C001
:10089000883809F4B8C0803909F45FC0803809F09D
:1008A000C0C05BC0803B09F486C038F4803A09F4CC
:1008B00066C0883A09F47FC0B4C0803C09F4A7C080
:1008C000883C09F4A4C0883B09F48AC0AAC080917E
:1008D000B30110C09091D5018091D401981770F5A3
:1008E000E091D50181E08E0F8093D501F0E0EC54CA
:1008F000FE4F80818093BB0085EC86C08093D6013B
:100900008EC0E091D50181E08E0F8093D50180915A
:10091000BB00F0E0EC54FE4F80839091D5018091B4
:10092000D4016EC0E091D50181E08E0F8093D50196
:100930008091BB00F0E0EC54FE4F80838091030275
:1009400081116DC081E08093020284EA61C083E07E
:10095000809304021092B201CFCF8091B201803215
:1009600008F051C0E091B20181E08E0F8093B20196
:100970008091BB00F0E0EE56FE4F8083BDCF85EC4A
:100980008093BC00109204028091B201803230F456
:10099000E091B201F0E0EE56FE4F10826091B2019C
:1009A00070E0E0919001F091910182E991E0099568
:1009B0001092B20136C084E08093040210928F013D
:1009C00010928E01E0918C01F0918D01099580913A
:1009D0008E01811105C081E080938E0110926C011F
:1009E000E0918F0181E08E0F80938F01F0E0E45958
:1009F000FE4F80818093BB0090918F0180918E018A
:100A0000981708F479CF85E88093BC000AC085EC7C
:100A10008093BC001092040204C01092D6010E9480
:100A20000E01FF91EF91BF91AF919F918F917F91B7
:100A30006F915F914F913F912F910F900FBE0F904B
:100A40001F9018950895CF92DF92EF92FF920F9327
:100A50001F93CF93DF936C017A018B01C0E0D0E04C
:100A6000CE15DF0589F0D8016D918D01D601ED918C
:100A7000FC910190F081E02DC6010995892B11F4BC
:100A80007E0102C02196ECCFC701DF91CF911F916B
:100A90000F91FF90EF90DF90CF900895FC01918D22
:100AA000828D981761F0828DDF01A80FB11D5D96D0
:100AB0008C91928D9F5F9F73928F90E008958FEF3E
:100AC0009FEF0895FC01918D828D981731F0828DF2
:100AD000E80FF11D858D90E008958FEF9FEF089549
:100AE000FC01918D228D892F90E0805C9F4F821BAD
:100AF00091098F739927089589E092E00E9470050B
:100B000021E0892B09F420E0822F0895FC01848DD7
:100B1000DF01A80FB11DA35ABF4F2C91848D90E027
:100B200001968F739927848FA689B7892C93A08902
:100B3000B1898C9180648C93938D848D981306C0B9
:100B40000288F389E02D80818F7D80830895EF9264
:100B5000FF920F931F93CF93DF93EC0181E0888F77
:100B60009B8D8C8D981305C0E889F989808185FD5E
:100B700024C0F62E0B8D10E00F5F1F4F0F7311274F
:100B8000E02E8C8DE8120CC00FB607FCFACFE88976
:100B9000F989808185FFF5CFCE010E948605F1CFCE
:100BA0008B8DFE01E80FF11DE35AFF4FF0820B8F92
:100BB000EA89FB898081806207C0EE89FF896083B2
:100BC000E889F98980818064808381E090E0DF9109
:100BD000CF911F910F91FF90EF900895CF93DF93E6
:100BE000EC01888D8823C9F0EA89FB89808185FD25
:100BF00005C0A889B9898C9186FD0FC00FB607FC86
:100C0000F5CF808185FFF2CFA889B9898C9185FFC6
:100C1000EDCFCE010E948605E7CFDF91CF910895F9
:100C20000E947C0581110C94350308953FB7F89418
:100C30008091FA019091FB01A091FC01B091FD011E
:100C400026B5A89B05C02F3F19F00196A11DB11D27
:100C50003FBFBA2FA92F982F8827820F911DA11D62
:100C6000B11DBC01CD0142E0660F771F881F991F9F
:100C70004A95D1F708950E9484111F920F920FB6E2
:100C80000F9211242F933F934F935F936F937F9312
:100C90008F939F93AF93BF93EF93FF9389E092E07D
:100CA0000E948605FF91EF91BF91AF919F918F9127
:100CB0007F916F915F914F913F912F910F900FBE58
:100CC0000F901F9018951F920F920FB60F9211243C
:100CD0002F938F939F93EF93FF93E0911902F091DD
:100CE0001A028081E0911F02F091200282FD12C061
:100CF0009081809122028F5F8F732091230282174F
:100D000051F0E0912202F0E0E75FFD4F958F809374
:100D1000220201C08081FF91EF919F918F912F91CD
:100D20000F900FBE0F901F9018958F929F92AF92C9
:100D3000BF92CF92DF92EF92FF926B017C010E94F3
:100D400016064B015C01C114D104E104F104F1F079
:100D50000E941606DC01CB0188199909AA09BB0972
:100D6000883E9340A105B10570F321E0C21AD10875
:100D7000E108F10888EE880E83E0981EA11CB11CE2
:100D8000C114D104E104F10419F7DDCFFF90EF9015
:100D9000DF90CF90BF90AF909F908F9008951F925B
:100DA0000F920FB60F9211242F933F938F939F931F
:100DB000AF93BF938091FE019091FF01A09100023B
:100DC000B09101023091F90123E0230F2D3720F477
:100DD0000196A11DB11D05C026E8230F0296A11D95
:100DE000B11D2093F9018093FE019093FF01A09320
:100DF0000002B09301028091FA019091FB01A09151
:100E0000FC01B091FD010196A11DB11D8093FA0175
:100E10009093FB01A093FC01B093FD01BF91AF91B2
:100E20009F918F913F912F910F900FBE0F901F9028
:100E30001895DC01E0E0615038F08D91E827F0E092
:100E4000E859FF4FE491F7CF8E2F0895CF92DF92AC
:100E5000EF92FF920F931F93CF93DF931F92CDB723
:100E6000DEB78C01F62E40E065E579830E9418021A
:100E7000CF2C7981D72E760188E0E80EF11CF6019F
:100E800061916F0140E0C8010E941802CE14DF0496
:100E9000B1F70F90DF91CF911F910F91FF90EF90DD
:100EA000DF90CF90089590E0FC01E859FE4F249127
:100EB000FC01E255FE4F3491FC01E656FE4FE491F1
:100EC000EE23B1F1222339F1233091F038F42130AF
:100ED000A9F0223001F584B58F7D12C0273091F042
:100EE0002830A1F02430B9F4809180008F7D03C0B8
:100EF000809180008F77809380000DC084B58F77BC
:100F000084BD09C08091B0008F7703C08091B0008C
:100F10008F7D8093B000F0E0EE0FFF1FE458FE4F8E
:100F2000A591B4918FB7F894EC913E2B3C938FBF71
:100F30000895AF92BF92CF92DF92EF92FF920F93FC
:100F40001F93CF93DF931F92CDB7DEB75C01D62EF0
:100F5000E72EFC018585811105C0C5010E945A025A
:100F6000811106C0F50113861586148680E065C0E0
:100F700040E060EFC5010E94180201E0F12CC12C95
:100F800011E0C5010E94C501682FC50169830E9457
:100F9000C5016981613019F48130B9F433C04F2D36
:100FA00050E068131BC0F5018385181730F4E40F77
:100FB000F51F8381802349F402C0181731F060E0E7
:100FC000193058F4F501148708C0F501EF0DF11D33
:100FD0008381802B838361E009C0C12EF501E40F7A
:100FE000F51F9381802F809589238383C5010E94FB
:100FF000E9011F5F000F11F4F39401E0F7E0FF1522
:1010000008F0BFCF113408F4ADCFF501C386C1108D
:1010100002C081E08587F5018381882309F4A2CF8E
:10102000D5011396ED2DFE2D9501255F3F4F8D9136
:101030008193A217B307D9F781E00F90DF91CF9189
:101040001F910F91FF90EF90DF90CF90BF90AF90E6
:101050000895AF92BF92CF92DF92EF92FF920F93DB
:101060001F93CF93DF93EC018B018091C902909184
:10107000CA020E945A028823A1F1BE018091C902CE
:101080009091CA020E94260740E06EEB8091C9024F
:101090009091CA020E941802E801680189E0C80E16
:1010A000D11CA090C902B090CA0288E0E82EF12CB1
:1010B00001E010E0C5010E94C5018111102B000F55
:1010C00081E0E81AF108B1F71993CC15DD0549F76D
:1010D0008091C9029091CA020E945A0291E0813027
:1010E00009F090E0892FDF91CF911F910F91FF9030
:1010F000EF90DF90CF90BF90AF900895CF93DF93A4
:10110000CDB7DEB729970FB6F894DEBF0FBECDBFBF
:10111000FC012081203119F1BE016F5F7F4F0E94D9
:101120002908882379F068E0CE0101960E9419070A
:101130009985891307C008C0803458F08F3569F04D
:101140008F3769F080E00CC08D818F33A9F78AE07A
:1011500007C08F31B9F789E003C08BE001C08CE094
:1011600029960FB6F894DEBF0FBECDBFDF91CF91A9
:101170000895CF93DF931092080210920702109205
:101180000602109205021092040281E0809303028D
:101190001092020282E10E94530783E10E945307EA
:1011A0008091B9008E7F8093B9008091B9008D7FC6
:1011B0008093B90088E48093B80085E48093BC00F4
:1011C0001092EA028091EF02823018F098E090933A
:1011D000EA028093ED0262E370E080E090E00E941A
:1011E00095066091F00285EE92E00E94900268EE12
:1011F00073E080E090E00E94950660E385EE92E067
:101200000E94F502CBE4D6E4CE010197F1F760E34A
:1012100085EE92E00E94F5022197F1F760E385EEFA
:1012200092E00E94F50283E592E00197F1F760E217
:1012300085EE92E00E94F5026091EA02606240E071
:1012400085EE92E00E940E0384E08093EB0240E082
:101250006CE085EE92E00E940E0340E061E085EED6
:1012600092E00E940E03CBE3DFE1CE010197F1F79C
:1012700082E08093EC0240E066E085EE92E00E941E
:101280000E0340E062E085EE92E00E940E0321979B
:10129000F1F7DF91CF910895009769F0FC0101907B
:1012A0000020E9F73197AF01481B590BBC0185EECF
:1012B00092E00C94230580E090E00895FC014481C5
:1012C00055816081718185EE92E00C942305CF9366
:1012D000DF93CDB7DEB728970FB6F894DEBF0FBE09
:1012E000CDBF28E0ECE0F1E0DE01119601900D9217
:1012F0002A95E1F72091ED02261710F46FEF620FA7
:10130000FE013196E60FF11DE60FF11D9081682F69
:10131000690F606840E085EE92E028960FB6F89479
:10132000DEBF0FBECDBFDF91CF910C940E038F9225
:101330009F92AF92BF920F931F93CF93DF93CDB73E
:10134000DEB7A1970FB6F894DEBF0FBECDBF19A2CE
:10135000423008F44AE08E010F5D1F4F842E912C1D
:10136000A12CB12CA50194010E94AB0EE62FB9016E
:10137000CA0101501109EA3014F4E05D01C0E95CD2
:10138000D801EC93232B242B252B61F7C8010E9455
:101390004C09A1960FB6F894DEBF0FBECDBFDF910A
:1013A000CF911F910F91BF90AF909F908F90089514
:1013B0002FB7F8948091FE019091FF01A091000257
:1013C000B09101022FBF8093110290931202A0935B
:1013D0001302B0931402E0910902F0910A02068010
:1013E000F781E02D89E092E0099597FF26C02FB79D
:1013F000F8948091FE019091FF01A0910002B091BC
:1014000001022FBF4091110250911202609113020C
:1014100070911402841B950BA60BB70B40910D0223
:1014200050910E0260910F0270911002841795077F
:10143000A607B70780F28FEF9FEF08950F931F93D2
:10144000CF93DF938C01EB01FC01808191810097A8
:10145000B1F0688179816115710579F0428153811C
:101460002C813D814217530740F00E949D118C81D1
:101470009D81F8019583848313C00E942210888186
:101480009981F801918380838A819B8193838283F0
:101490008C819D8195838483198218821B821A8294
:1014A0001D821C82DF91CF911F910F9108950F93A0
:1014B0001F93CF93DF93EC0188819981009729F0E6
:1014C0002A813B812617370788F48B016F5F7F4F96
:1014D0000E94BA10009761F0998388831B830A8366
:1014E0002C813D81232B11F4FC01108281E001C08D
:1014F00080E0DF91CF911F910F910895EF92FF92BD
:101500000F931F93CF93DF93EC017B018A01BA0104
:101510000E94570A2881398181110DC0211531059A
:1015200019F0C9010E942210198218821D821C82A2
:101530001B821A8206C01D830C83B701C9010E9459
:101540009D11CE01DF91CF911F910F91FF90EF90F0
:101550000895FC01808191810C942210FC0111827C
:10156000108213821282158214826115710551F066
:10157000FB0101900020E9F73197AF01461B570BA3
:101580000C947E0A0895BF92CF92DF92EF92FF9261
:101590000F931F93CF93DF937C016B01EA018901C5
:1015A0002417350720F48D2FE901042F182F67E643
:1015B00071E0C7010E94AE0AD60114968D919C91EC
:1015C0001597C817D907C8F58017910708F48C013B
:1015D000D601ED91FC911197E00FF11FB0801082C0
:1015E0004D915C91BA016C0F7D1F6115710561F021
:1015F000FB0101900020E9F73197AF01461B570B23
:10160000C7010E947E0A13C0F70180819181009773
:1016100011F00E942210D70111961C921E9215966D
:101620001C921E92149713961C921E921297D6012A
:10163000ED91FC91E00FF11FB082C701DF91CF91D6
:101640001F910F91FF90EF90DF90CF90BF90089582
:1016500082EB92E00E94A90A88EB92E00E94A90A1C
:101660008EEB92E00C94A90ACF93DF93CDB7DEB74F
:1016700061970FB6F894DEBF0FBECDBF789484B5E6
:10168000826084BD84B5816084BD85B5826085BD7E
:1016900085B5816085BD80916E00816080936E000C
:1016A00010928100809181008260809381008091FE
:1016B00081008160809381008091800081608093AF
:1016C00080008091B10084608093B1008091B0006F
:1016D00081608093B00080917A00846080937A006A
:1016E00080917A00826080937A0080917A00816094
:1016F00080937A0080917A00806880937A001092BB
:10170000C100E0911902F0911A0282E08083E09119
:101710001502F09116021082E0911702F091180262
:101720008FEC808310922102E0911D02F0911E0245
:1017300086E08083E0911B02F0911C028081806131
:101740008083E0911B02F0911C028081886080837D
:10175000E0911B02F0911C02808180688083E091FF
:101760001B02F0911C0280818F7D80830E94B9084A
:101770000E94B90888E08093F00260E085EE92E074
:101780000E949002E091C902F091CA021386158668
:101790001486DF011B9633961E92AE17BF07E1F742
:1017A0001092C80211E0BE01665F7F4F8091C902AE
:1017B0009091CA020E949907882309F4F7C067E054
:1017C000CE010A960E94190799898913ECCF80915E
:1017D000C402811127C08091C9029091CA020E945F
:1017E0005A02BE01665F7F4F8091C9029091CA0282
:1017F0000E94260740E064EB8091C9029091CA02E2
:101800000E9418028091C9029091CA020E94C501EB
:10181000F82E8091C9029091CA020E945A02FF20BC
:1018200009F4A6C1BE016F5F7F4FCE010A960E94E8
:101830002908F090C502CE010A960E947E088F15F5
:1018400018F48091C50204C0CE010A960E947E0859
:101850008093C5028091C8028F5F8093C802A3CF96
:10186000E091C502E950E33008F0E1C0F0E0EE0F8E
:10187000FF1FEA5FFE4F60817181072E000C880B0D
:10188000990B0E949506E091C902F091CA02138655
:1018900015861486DF011B96CF0103961E92A817AA
:1018A000B907E1F7BE01665F7F4FCF010E9499073C
:1018B000882309F4BFC067E0CE010A960E94190789
:1018C00099898913B7C0BE016F5F7F4FCE010A9619
:1018D0000E942908882309F450C168E0CE010196CE
:1018E0000E9419079985891348C1698188E0689F1A
:1018F000B00111248A81282F30E0322F2227330FA4
:10190000330F330F262B372B8A85803109F033C1F3
:10191000688570E08F81AB01481B5109CA0196951B
:10192000982F8827979587950E94970E6051710987
:10193000207F53E0220F331F5A95E1F7620F731F88
:10194000613854EE75070CF475C0072E000C880B37
:10195000990B0E94AB1120E030E040E05CE30E9474
:101960000A126B017C01A7019601C701B6010E9412
:10197000880F882309F465C083E591E00E944C0933
:1019800080E591E00E944C0963E080E00E946709D5
:101990008FE591E00E944C098EEB92E00E945E0977
:1019A00085E691E00E944C090E94100660E080E00C
:1019B0000E9467098CE391E00E944C0982EB92E05F
:1019C0000E945E0961E080E00E94670986E491E080
:1019D0000E944C0988EB92E00E945E0980E591E04C
:1019E0000E944C0962E080E00E94670989E491E06E
:1019F0000E944C098091C9029091CA020E945A0229
:101A000040E06CEC8091C9029091CA020E941802D9
:101A10004091C40264E48091C9029091CA020E947C
:101A200018028091C602882309F42DCF19CF6EEEDB
:101A300072E023CFC12CD12C9EEFE92E92ECF92E2F
:101A400092CF46015701E894B7F82FEF3FEF4FE7E9
:101A50005FE7C501B4010E94880F81110DC02FEF0F
:101A60003FEF4FE75FE7C501B4010E94A4111816CC
:101A70001CF487E591E082CF2FEF3FEF4FE75FE463
:101A8000C701B6010E94830F18161CF48BE591E084
:101A900075CF2FEF3FEF4FE75FECC701B6010E9414
:101AA000A41187FDF3CF20E030E0A901C701B60102
:101AB0000E94A41187FF0FC0E091E502F091E602B9
:101AC0000190F081E02D6DE285EE92E00995F7FA44
:101AD000F094F7F8F0942AE037ED43EA5BE3C701AE
:101AE000B6010E94E80E4B015C010E94540F6B018D
:101AF0007C010E94A9119B01AC01C501B4010E94A7
:101B0000E70E4B015C014AE0C701B6010E9497094C
:101B10008AE691E00E944C0920E030E040E251E486
:101B2000C501B4010E940A124B015C010E94540FCE
:101B30006B01E12CF12C4AE0C701B6010E94970924
:101B4000C701B6010E94A9119B01AC01C501B401F6
:101B50000E94E70E20E030E040E251E40E940A12C9
:101B60000E94540F80E090E04AE00E94970908CF5D
:101B70001093C40257CEB901E3CE60E874EEE0CE14
:101B8000CF93DF9310920C0210920B0288EE93E039
:101B9000A0E0B0E080930D0290930E02A0930F029C
:101BA000B093100228E131E030930A022093090239
:101BB00025EC30E0309316022093150224EC30E03F
:101BC000309318022093170220EC30E030931A0271
:101BD0002093190221EC30E030931C0220931B0269
:101BE00022EC30E030931E0220931D0226EC30E000
:101BF0003093200220931F0210922202109223029F
:101C000010922402109225021092A9021092A802AA
:101C10008093AA029093AB02A093AC02B093AD0262
:101C200088E291E09093A7028093A6021092E802C6
:101C30001092E70288E391E09093E6028093E50238
:101C400087E28093E90284E18093EE0284E080934E
:101C5000EF021092F002E0EBF1E02491ECE9F1E008
:101C600084918823C1F090E0880F991FFC01EA5706
:101C7000FE4FC591D491FC01E458FE4FA591B4915B
:101C80009FB7F8948881E22FE0958E2388838C910A
:101C9000E823EC939FBFE0EBF1E0E491E093D702FF
:101CA000ECE9F1E0E491F0E0EE0FFF1FE057FE4FAA
:101CB000859194919093D9028093D8021092E20278
:101CC0001092E4021092E302E2EEF2E0129282E05D
:101CD000EA3DF807D9F78DE091E09093D602809322
:101CE000D50287ED92E09093CA028093C9021092C8
:101CF000C8021092C40289E08093C50281E08093FB
:101D0000C6028093C70268E671E08EEB92E00E9403
:101D1000AE0A68E671E088EB92E00E94AE0A68E6DF
:101D200071E082EB92E0DF91CF910C94AE0A97FBC9
:101D3000072E16F4009407D077FD09D00E94CD0E2F
:101D400007FC05D03EF4909581959F4F08957095BE
:101D500061957F4F0895A1E21A2EAA1BBB1BFD01BE
:101D60000DC0AA1FBB1FEE1FFF1FA217B307E4077A
:101D7000F50720F0A21BB30BE40BF50B661F771FD2
:101D8000881F991F1A9469F76095709580959095B2
:101D90009B01AC01BD01CF010895AA1BBB1B51E102
:101DA00007C0AA1FBB1FA617B70710F0A61BB70BCB
:101DB000881F991F5A95A9F780959095BC01CD0170
:101DC0000895EE0FFF1F0590F491E02D09945058EF
:101DD000BB27AA270E94FF0E0C948E120E9480122D
:101DE00038F00E94871220F039F49F3F19F426F44E
:101DF0000C947D120EF4E095E7FB0C947712E92F1A
:101E00000E949F1258F3BA17620773078407950759
:101E100020F079F4A6F50C94C1120EF4E0950B2E87
:101E2000BA2FA02D0B01B90190010C01CA01A0012C
:101E30001124FF27591B99F0593F50F4503E68F187
:101E40001A16F040A22F232F342F4427585FF3CFC8
:101E5000469537952795A795F0405395C9F77EF499
:101E60001F16BA0B620B730B840BBAF09150A1F0E2
:101E7000FF0FBB1F661F771F881FC2F70EC0BA0F68
:101E8000621F731F841F48F4879577956795B795F0
:101E9000F7959E3F08F0B0CF9395880F08F09927EB
:101EA000EE0F9795879508950E94A71288F09F5787
:101EB00098F0B92F9927B751B0F0E1F0660F771F6E
:101EC000881F991F1AF0BA95C9F714C0B13091F064
:101ED0000E94C112B1E008950C94C112672F782FAF
:101EE0008827B85F39F0B93FCCF386957795679529
:101EF000B395D9F73EF490958095709561957F4F95
:101F00008F4F9F4F08950E94E61108F48FEF0895B8
:101F10000E94E611880B990B0895CF93DF938230CE
:101F2000910510F482E090E0E091F302F091F40268
:101F300020E030E0C0E0D0E0309711F140815181E5
:101F400048175907C0F04817590761F482819381F7
:101F5000209719F09B838A832BC09093F40280937F
:101F6000F30226C02115310519F04217530718F462
:101F70009A01BE01DF01EF010280F381E02DDCCF89
:101F80002115310509F1281B390B2430310590F456
:101F900012968D919C9113976115710521F0FB01AB
:101FA0009383828304C09093F4028093F302FD0133
:101FB000329644C0FD01E20FF31F819391932250AA
:101FC00031092D933C933AC02091F1023091F202F5
:101FD000232B41F420910201309103013093F2024E
:101FE0002093F1022091000130910101211531056A
:101FF00041F42DB73EB74091040150910501241BD7
:10200000350BE091F102F091F202E217F307A0F430
:102010002E1B3F0B2817390778F0AC014E5F5F4F3E
:102020002417350748F04E0F5F1F5093F20240937C
:10203000F1028193919302C0E0E0F0E0CF01DF91E3
:10204000CF9108950F931F93CF93DF93009709F4D7
:102050008CC0FC013297138212820091F30210911E
:10206000F4020115110581F420813181820F931F43
:102070002091F1023091F2022817390779F5F09397
:10208000F202E093F10271C0D80140E050E0AE17D7
:10209000BF0750F412962D913C911397AD01211575
:1020A000310509F1D901F3CF9D01DA013383228390
:1020B00060817181860F971F8217930769F4EC0185
:1020C00028813981260F371F2E5F3F4F31832083B0
:1020D0008A819B8193838283452B29F4F093F402B8
:1020E000E093F30242C01396FC93EE931297ED0136
:1020F000499159919E01240F351FE217F30771F49E
:1021000080819181840F951F029611969C938E93E6
:102110008281938113969C938E931297E0E0F0E076
:10212000D80112968D919C911397009719F0F801A0
:102130008C01F6CF8D919C9198012E5F3F4F820FBD
:10214000931F2091F1023091F2022817390769F4A8
:10215000309729F41092F4021092F30202C0138215
:1021600012821093F2020093F102DF91CF911F913E
:102170000F910895A0E0B0E0E0ECF0E10C94CC12F7
:10218000EC01009721F4CB010E948D0FB8C0FC0137
:10219000E60FF71F9C0122503109E217F30708F4FC
:1021A000ACC0D9010D911C91119706171707B0F01B
:1021B0000530110508F49FC0C801049786179707DA
:1021C00008F499C002501109061B170B01931193D3
:1021D0006D937C93CF010E9422108DC05B01A01AE9
:1021E000B10A4C01800E911EA091F302B091F4024D
:1021F00040E050E0E12CF12C109709F44AC0A815FA
:10220000B905D1F56D907C901197630182E0C80EFD
:10221000D11CCA14DB0480F1A3014A195B096A01CD
:1022200082E0C80ED11C1296BC9012971396AC9106
:10223000B5E0CB16D10440F0B282A3835183408332
:10224000D9016D937C930AC00E5F1F4FC301800FAD
:10225000911FF90191838083EB2DFA2FE114F10492
:1022600031F0D7011396FC93EE93129744C0F0938C
:10227000F402E093F3023FC08D919C9111974817AF
:10228000590708F4AC017D0112960D90BC91A02D68
:10229000B3CF8091F1029091F20288159905E1F493
:1022A00046175707C8F480910001909101010097EB
:1022B00041F48DB79EB74091040150910501841BF4
:1022C000950BE817F907C8F4F093F202E093F102D6
:1022D000F901718360830FC0CB010E948D0F7C01D7
:1022E000009759F0A801BE010E948911CE010E94F9
:1022F0002210C70104C0CE0102C080E090E0CDB73B
:10230000DEB7EEE00C94E81281E090E0F8940C94D3
:10231000FF12FB01DC0102C001900D9241505040C0
:10232000D8F70895FC018191861721F08823D9F709
:10233000992708953197CF010895FB01DC010190A1
:102340000D920020E1F708950E94E61108F481E063
:102350000895E89409C097FB3EF490958095709598
:1023600061957F4F8F4F9F4F9923A9F0F92F96E9E1
:10237000BB279395F695879577956795B795F11156
:10238000F8CFFAF4BB0F11F460FF1BC06F5F7F4FF3
:102390008F4F9F4F16C0882311F096E911C0772305
:1023A00021F09EE8872F762F05C0662371F096E80E
:1023B000862F70E060E02AF09A95660F771F881FDD
:1023C000DAF7880F9695879597F90895990F000881
:1023D000550FAA0BE0E8FEEF16161706E807F907F7
:1023E000C0F012161306E407F50798F0621B730B92
:1023F000840B950B39F40A2661F0232B242B252B13
:1024000021F408950A2609F4A140A6958FEF811DB5
:10241000811D08950E941D120C948E120E9480123C
:1024200038F00E94871220F0952311F00C94771257
:102430000C947D1211240C94C2120E949F1270F30E
:10244000959FC1F3950F50E0551F629FF001729F59
:10245000BB27F00DB11D639FAA27F00DB11DAA1F68
:10246000649F6627B00DA11D661F829F2227B00DB5
:10247000A11D621F739FB00DA11D621F839FA00D40
:10248000611D221F749F3327A00D611D231F849F90
:10249000600D211D822F762F6A2F11249F575040E7
:1024A0009AF0F1F088234AF0EE0FFF1FBB1F661F62
:1024B000771F881F91505040A9F79E3F510580F02B
:1024C0000C9477120C94C2125F3FE4F3983ED4F35D
:1024D000869577956795B795F795E7959F5FC1F7CF
:1024E000FE2B880F911D9695879597F9089597F97A
:1024F0009F6780E870E060E008959FEF80EC0895AA
:1025000000240A94161617061806090608950024D2
:102510000A9412161306140605060895092E03944C
:10252000000C11F4882352F0BB0F40F4BF2B11F4C0
:1025300060FF04C06F5F7F4F8F4F9F4F089557FD1F
:102540009058440F551F59F05F3F71F04795880F21
:1025500097FB991F61F09F3F79F0879508951216B8
:1025600013061406551FF2CF4695F1DF08C0161664
:1025700017061806991FF1CF869571056105089415
:102580000895E894BB2766277727CB0197F908952C
:102590002F923F924F925F926F927F928F929F9273
:1025A000AF92BF92CF92DF92EF92FF920F931F9361
:1025B000CF93DF93CDB7DEB7CA1BDB0B0FB6F89412
:1025C000DEBF0FBECDBF09942A88398848885F8452
:1025D0006E847D848C849B84AA84B984C884DF80C3
:1025E000EE80FD800C811B81AA81B981CE0FD11DA7
:1025F0000FB6F894DEBF0FBECDBFED01089510E019
:10260000C2EED0E004C0FE010E94E10E2196C33E5E
:08261000D107C9F7F894FFCFD0
:102618000000F50280005E00BC0077010000400069
:102628001400540000000000A705230570054E059E
:102638006205EE0500000000960166015E014F018B
:1026480041014001000000002F0323055765617414
:102658006865723A20004F757454656D703A2000B1
:102668004320006E616E00696E66006F76660048F2
:0C267800756D3A20002520002E2E2E004B
:00000001FF
